{
  "contractName": "Projet",
  "abi": [
    {
      "anonymous": false,
      "inputs": [
        {
          "indexed": false,
          "internalType": "uint256",
          "name": "projectId",
          "type": "uint256"
        },
        {
          "indexed": false,
          "internalType": "address",
          "name": "donor",
          "type": "address"
        },
        {
          "indexed": false,
          "internalType": "uint256",
          "name": "amount",
          "type": "uint256"
        }
      ],
      "name": "DonationMade",
      "type": "event"
    },
    {
      "anonymous": false,
      "inputs": [
        {
          "indexed": false,
          "internalType": "uint256",
          "name": "projectId",
          "type": "uint256"
        },
        {
          "indexed": false,
          "internalType": "string",
          "name": "title",
          "type": "string"
        },
        {
          "indexed": false,
          "internalType": "string",
          "name": "description",
          "type": "string"
        },
        {
          "indexed": false,
          "internalType": "address",
          "name": "owner",
          "type": "address"
        }
      ],
      "name": "ProjectCreated",
      "type": "event"
    },
    {
      "inputs": [
        {
          "internalType": "address",
          "name": "",
          "type": "address"
        },
        {
          "internalType": "uint256",
          "name": "",
          "type": "uint256"
        }
      ],
      "name": "donations",
      "outputs": [
        {
          "internalType": "address",
          "name": "donneur",
          "type": "address"
        },
        {
          "internalType": "uint256",
          "name": "prix",
          "type": "uint256"
        }
      ],
      "stateMutability": "view",
      "type": "function",
      "constant": true
    },
    {
      "inputs": [],
      "name": "projectId",
      "outputs": [
        {
          "internalType": "uint256",
          "name": "",
          "type": "uint256"
        }
      ],
      "stateMutability": "view",
      "type": "function",
      "constant": true
    },
    {
      "inputs": [
        {
          "internalType": "uint256",
          "name": "",
          "type": "uint256"
        }
      ],
      "name": "projects",
      "outputs": [
        {
          "internalType": "string",
          "name": "title",
          "type": "string"
        },
        {
          "internalType": "string",
          "name": "description",
          "type": "string"
        },
        {
          "internalType": "address",
          "name": "owner",
          "type": "address"
        }
      ],
      "stateMutability": "view",
      "type": "function",
      "constant": true
    },
    {
      "inputs": [
        {
          "internalType": "string",
          "name": "_title",
          "type": "string"
        },
        {
          "internalType": "string",
          "name": "_description",
          "type": "string"
        }
      ],
      "name": "createProject",
      "outputs": [],
      "stateMutability": "nonpayable",
      "type": "function"
    },
    {
      "inputs": [
        {
          "internalType": "uint256",
          "name": "_projectId",
          "type": "uint256"
        }
      ],
      "name": "donateToProject",
      "outputs": [],
      "stateMutability": "payable",
      "type": "function",
      "payable": true
    }
  ],
  "bytecode": "0x60806040526000805534801561001457600080fd5b50610ef7806100246000396000f3fe60806040526004361061004a5760003560e01c8063107046bd1461004f5780633fafa1271461008e57806356adb06f146100b95780636bd06204146100d557806395086ed1146100fe575b600080fd5b34801561005b57600080fd5b50610076600480360381019061007191906107aa565b61013c565b604051610085939291906108b1565b60405180910390f35b34801561009a57600080fd5b506100a3610296565b6040516100b09190610905565b60405180910390f35b6100d360048036038101906100ce91906107aa565b61029c565b005b3480156100e157600080fd5b506100fc60048036038101906100f79190610a55565b610549565b005b34801561010a57600080fd5b5061012560048036038101906101209190610af9565b61066c565b604051610133929190610b39565b60405180910390f35b600160205280600052604060002060009150905080600001805461015f90610b91565b80601f016020809104026020016040519081016040528092919081815260200182805461018b90610b91565b80156101d85780601f106101ad576101008083540402835291602001916101d8565b820191906000526020600020905b8154815290600101906020018083116101bb57829003601f168201915b5050505050908060010180546101ed90610b91565b80601f016020809104026020016040519081016040528092919081815260200182805461021990610b91565b80156102665780601f1061023b57610100808354040283529160200191610266565b820191906000526020600020905b81548152906001019060200180831161024957829003601f168201915b5050505050908060020160009054906101000a900473ffffffffffffffffffffffffffffffffffffffff16905083565b60005481565b6000811180156102ae57506000548111155b6102ed576040517f08c379a00000000000000000000000000000000000000000000000000000000081526004016102e490610c0f565b60405180910390fd5b60003411610330576040517f08c379a000000000000000000000000000000000000000000000000000000000815260040161032790610ca1565b60405180910390fd5b60006001600083815260200190815260200160002060020160009054906101000a900473ffffffffffffffffffffffffffffffffffffffff169050600073ffffffffffffffffffffffffffffffffffffffff168173ffffffffffffffffffffffffffffffffffffffff1614156103db576040517f08c379a00000000000000000000000000000000000000000000000000000000081526004016103d290610d0d565b60405180910390fd5b6000600260003373ffffffffffffffffffffffffffffffffffffffff1673ffffffffffffffffffffffffffffffffffffffff168152602001908152602001600020600084815260200190815260200160002090506000816001015414610476576040517f08c379a000000000000000000000000000000000000000000000000000000000815260040161046d90610d9f565b60405180910390fd5b338160000160006101000a81548173ffffffffffffffffffffffffffffffffffffffff021916908373ffffffffffffffffffffffffffffffffffffffff1602179055503481600101819055508173ffffffffffffffffffffffffffffffffffffffff166108fc349081150290604051600060405180830381858888f19350505050158015610508573d6000803e3d6000fd5b507fe555da28bdb778f65d22794d88927ebaeca03f7de9d1b7d39245bc8fb5ca078a83333460405161053c93929190610dbf565b60405180910390a1505050565b60008081548092919061055b90610e25565b919050555060405180606001604052808381526020018281526020013373ffffffffffffffffffffffffffffffffffffffff16815250600160008054815260200190815260200160002060008201518160000190805190602001906105c19291906106bd565b5060208201518160010190805190602001906105de9291906106bd565b5060408201518160020160006101000a81548173ffffffffffffffffffffffffffffffffffffffff021916908373ffffffffffffffffffffffffffffffffffffffff1602179055509050507fedfd921b9d3f1e2d61625b6c7cbf436b8651ea7c5c83e688277f1600fdcb1f266000548383336040516106609493929190610e6e565b60405180910390a15050565b6002602052816000526040600020602052806000526040600020600091509150508060000160009054906101000a900473ffffffffffffffffffffffffffffffffffffffff16908060010154905082565b8280546106c990610b91565b90600052602060002090601f0160209004810192826106eb5760008555610732565b82601f1061070457805160ff1916838001178555610732565b82800160010185558215610732579182015b82811115610731578251825591602001919060010190610716565b5b50905061073f9190610743565b5090565b5b8082111561075c576000816000905550600101610744565b5090565b6000604051905090565b600080fd5b600080fd5b6000819050919050565b61078781610774565b811461079257600080fd5b50565b6000813590506107a48161077e565b92915050565b6000602082840312156107c0576107bf61076a565b5b60006107ce84828501610795565b91505092915050565b600081519050919050565b600082825260208201905092915050565b60005b838110156108115780820151818401526020810190506107f6565b83811115610820576000848401525b50505050565b6000601f19601f8301169050919050565b6000610842826107d7565b61084c81856107e2565b935061085c8185602086016107f3565b61086581610826565b840191505092915050565b600073ffffffffffffffffffffffffffffffffffffffff82169050919050565b600061089b82610870565b9050919050565b6108ab81610890565b82525050565b600060608201905081810360008301526108cb8186610837565b905081810360208301526108df8185610837565b90506108ee60408301846108a2565b949350505050565b6108ff81610774565b82525050565b600060208201905061091a60008301846108f6565b92915050565b600080fd5b600080fd5b7f4e487b7100000000000000000000000000000000000000000000000000000000600052604160045260246000fd5b61096282610826565b810181811067ffffffffffffffff821117156109815761098061092a565b5b80604052505050565b6000610994610760565b90506109a08282610959565b919050565b600067ffffffffffffffff8211156109c0576109bf61092a565b5b6109c982610826565b9050602081019050919050565b82818337600083830152505050565b60006109f86109f3846109a5565b61098a565b905082815260208101848484011115610a1457610a13610925565b5b610a1f8482856109d6565b509392505050565b600082601f830112610a3c57610a3b610920565b5b8135610a4c8482602086016109e5565b91505092915050565b60008060408385031215610a6c57610a6b61076a565b5b600083013567ffffffffffffffff811115610a8a57610a8961076f565b5b610a9685828601610a27565b925050602083013567ffffffffffffffff811115610ab757610ab661076f565b5b610ac385828601610a27565b9150509250929050565b610ad681610890565b8114610ae157600080fd5b50565b600081359050610af381610acd565b92915050565b60008060408385031215610b1057610b0f61076a565b5b6000610b1e85828601610ae4565b9250506020610b2f85828601610795565b9150509250929050565b6000604082019050610b4e60008301856108a2565b610b5b60208301846108f6565b9392505050565b7f4e487b7100000000000000000000000000000000000000000000000000000000600052602260045260246000fd5b60006002820490506001821680610ba957607f821691505b60208210811415610bbd57610bbc610b62565b5b50919050565b7f496e76616c69642070726f6a6563742049440000000000000000000000000000600082015250565b6000610bf96012836107e2565b9150610c0482610bc3565b602082019050919050565b60006020820190508181036000830152610c2881610bec565b9050919050565b7f446f6e6174696f6e20616d6f756e74206d75737420626520677265617465722060008201527f7468616e20300000000000000000000000000000000000000000000000000000602082015250565b6000610c8b6026836107e2565b9150610c9682610c2f565b604082019050919050565b60006020820190508181036000830152610cba81610c7e565b9050919050565b7f50726f6a65637420646f6573206e6f7420657869737400000000000000000000600082015250565b6000610cf76016836107e2565b9150610d0282610cc1565b602082019050919050565b60006020820190508181036000830152610d2681610cea565b9050919050565b7f446f6e6f722063616e206f6e6c7920646f6e617465206f6e636520746f20612060008201527f70726f6a65637400000000000000000000000000000000000000000000000000602082015250565b6000610d896027836107e2565b9150610d9482610d2d565b604082019050919050565b60006020820190508181036000830152610db881610d7c565b9050919050565b6000606082019050610dd460008301866108f6565b610de160208301856108a2565b610dee60408301846108f6565b949350505050565b7f4e487b7100000000000000000000000000000000000000000000000000000000600052601160045260246000fd5b6000610e3082610774565b91507fffffffffffffffffffffffffffffffffffffffffffffffffffffffffffffffff821415610e6357610e62610df6565b5b600182019050919050565b6000608082019050610e8360008301876108f6565b8181036020830152610e958186610837565b90508181036040830152610ea98185610837565b9050610eb860608301846108a2565b9594505050505056fea2646970667358221220dcf0b2ae0cdee29272ed94fb97611240866fe3f1766c932f15497fcc128f473f64736f6c63430008080033",
  "immutableReferences": {},
  "source": "// SPDX-License-Identifier: MIT\r\npragma solidity  ^0.8.8; //version de compilateur\r\n\r\nstruct Projets{\r\n    string title;\r\n    string description;\r\n    address owner;\r\n}\r\nstruct donation {\r\n    address donneur;\r\n    uint256 prix;\r\n}\r\ncontract Projet{\r\n\r\n\r\n    uint256 public projectId =0;\r\n    mapping(uint256 => Projets) public projects;\r\n    mapping(address => mapping(uint256 => donation)) public donations; //  cette ligne permet de stocker les dons effectus par chaque adresse pour chaque projet, \r\n\r\n    event ProjectCreated(uint256 projectId, string title, string description, address owner);\r\n    event DonationMade(uint256 projectId, address donor, uint256 amount);\r\n\r\n    function createProject(string memory _title, string memory _description) external {\r\n        projectId++;\r\n        projects[projectId] = Projets(_title, _description, msg.sender);\r\n        emit ProjectCreated(projectId, _title, _description, msg.sender);\r\n    }\r\n\r\n    function donateToProject(uint256 _projectId) external payable {\r\n        require(_projectId > 0 && _projectId <= projectId, \"Invalid project ID\");\r\n        require(msg.value > 0, \"Donation amount must be greater than 0\");\r\n\r\n        address projectOwner = projects[_projectId].owner;\r\n        require(projectOwner != address(0), \"Project does not exist\");\r\n\r\n        donation storage Donation = donations[msg.sender][_projectId];\r\n        require(Donation.prix == 0, \"Donor can only donate once to a project\");\r\n\r\n        Donation.donneur = msg.sender;\r\n        Donation.prix = msg.value;\r\n\r\n        payable(projectOwner).transfer(msg.value);\r\n        emit DonationMade(_projectId, msg.sender, msg.value);\r\n    }\r\n\r\n   \r\n}   ",
  "sourcePath": "C:\\Users\\HP\\Desktop\\exam-blockchain\\contracts\\Projet.sol",
  "compiler": {
    "name": "solc",
    "version": "0.8.8+commit.dddeac2f.Emscripten.clang"
  },
  "schemaVersion": "3.4.14",
  "updatedAt": "2023-06-12T14:28:45.170Z",
  "networkType": "ethereum",
  "devdoc": {
    "kind": "dev",
    "methods": {},
    "version": 1
  },
  "userdoc": {
    "kind": "user",
    "methods": {},
    "version": 1
  }
}